{
  "contractName": "NonVoteStageFactory",
  "abi": [
    {
      "constant": true,
      "inputs": [],
      "name": "name",
      "outputs": [
        {
          "name": "",
          "type": "string"
        }
      ],
      "payable": false,
      "stateMutability": "view",
      "type": "function"
    },
    {
      "constant": true,
      "inputs": [],
      "name": "totalAmount",
      "outputs": [
        {
          "name": "",
          "type": "uint256"
        }
      ],
      "payable": false,
      "stateMutability": "view",
      "type": "function"
    },
    {
      "constant": false,
      "inputs": [
        {
          "name": "_endTime",
          "type": "uint256"
        }
      ],
      "name": "setTime",
      "outputs": [],
      "payable": false,
      "stateMutability": "nonpayable",
      "type": "function"
    },
    {
      "constant": true,
      "inputs": [],
      "name": "isInvestmentHigher",
      "outputs": [
        {
          "name": "",
          "type": "bool"
        }
      ],
      "payable": false,
      "stateMutability": "view",
      "type": "function"
    },
    {
      "constant": false,
      "inputs": [
        {
          "name": "_num",
          "type": "uint256"
        },
        {
          "name": "_choice_address",
          "type": "address"
        },
        {
          "name": "_choice_name",
          "type": "string"
        }
      ],
      "name": "setChoices",
      "outputs": [],
      "payable": false,
      "stateMutability": "nonpayable",
      "type": "function"
    },
    {
      "constant": true,
      "inputs": [
        {
          "name": "_participant",
          "type": "address"
        }
      ],
      "name": "getParticipantInfo",
      "outputs": [
        {
          "name": "",
          "type": "uint256"
        },
        {
          "name": "",
          "type": "string"
        }
      ],
      "payable": false,
      "stateMutability": "view",
      "type": "function"
    },
    {
      "constant": true,
      "inputs": [],
      "name": "isFinalized",
      "outputs": [
        {
          "name": "",
          "type": "bool"
        }
      ],
      "payable": false,
      "stateMutability": "view",
      "type": "function"
    },
    {
      "constant": true,
      "inputs": [],
      "name": "owner",
      "outputs": [
        {
          "name": "",
          "type": "address"
        }
      ],
      "payable": false,
      "stateMutability": "view",
      "type": "function"
    },
    {
      "constant": true,
      "inputs": [],
      "name": "numOfChoices",
      "outputs": [
        {
          "name": "",
          "type": "uint256"
        }
      ],
      "payable": false,
      "stateMutability": "view",
      "type": "function"
    },
    {
      "constant": true,
      "inputs": [],
      "name": "isRefundingAllowed",
      "outputs": [
        {
          "name": "",
          "type": "bool"
        }
      ],
      "payable": false,
      "stateMutability": "view",
      "type": "function"
    },
    {
      "inputs": [
        {
          "name": "_name",
          "type": "string"
        },
        {
          "name": "_totalAmount",
          "type": "uint256"
        },
        {
          "name": "_numOfChoices",
          "type": "uint256"
        }
      ],
      "payable": false,
      "stateMutability": "nonpayable",
      "type": "constructor"
    },
    {
      "anonymous": false,
      "inputs": [
        {
          "indexed": false,
          "name": "zombieId",
          "type": "uint256"
        },
        {
          "indexed": false,
          "name": "name",
          "type": "string"
        },
        {
          "indexed": false,
          "name": "totalAmount",
          "type": "uint256"
        }
      ],
      "name": "NewStage",
      "type": "event"
    },
    {
      "constant": true,
      "inputs": [
        {
          "name": "_choiceId",
          "type": "uint256"
        }
      ],
      "name": "getChoiceInfo",
      "outputs": [
        {
          "name": "",
          "type": "string"
        },
        {
          "name": "",
          "type": "address"
        },
        {
          "name": "",
          "type": "uint256"
        }
      ],
      "payable": false,
      "stateMutability": "view",
      "type": "function"
    },
    {
      "constant": false,
      "inputs": [
        {
          "name": "_choice",
          "type": "uint256"
        }
      ],
      "name": "attendStage",
      "outputs": [],
      "payable": true,
      "stateMutability": "payable",
      "type": "function"
    },
    {
      "constant": false,
      "inputs": [],
      "name": "checkMaxInvestment",
      "outputs": [
        {
          "name": "",
          "type": "uint256"
        }
      ],
      "payable": false,
      "stateMutability": "nonpayable",
      "type": "function"
    },
    {
      "constant": false,
      "inputs": [
        {
          "name": "_max_choice_index",
          "type": "uint256"
        }
      ],
      "name": "finalizeStage",
      "outputs": [],
      "payable": false,
      "stateMutability": "nonpayable",
      "type": "function"
    }
  ],
  "bytecode": "0x60806040523480156200001157600080fd5b506040516200143b3803806200143b833981018060405281019080805182019291906020018051906020019092919080519060200190929190505050828282336000806101000a81548173ffffffffffffffffffffffffffffffffffffffff021916908373ffffffffffffffffffffffffffffffffffffffff1602179055508260019080519060200190620000a89291906200018a565b50670de0b6b3a76400008202600281905550806003819055506000600660006101000a81548160ff0219169083151502179055506000600660016101000a81548160ff0219169083151502179055506000600660026101000a81548160ff0219169083151502179055506000600660036101000a81548160ff0219169083151502179055505050506000600660006101000a81548160ff0219169083151502179055506000600660016101000a81548160ff0219169083151502179055506000600660026101000a81548160ff02191690831515021790555050505062000239565b828054600181600116156101000203166002900490600052602060002090601f016020900481019282601f10620001cd57805160ff1916838001178555620001fe565b82800160010185558215620001fe579182015b82811115620001fd578251825591602001919060010190620001e0565b5b5090506200020d919062000211565b5090565b6200023691905b808211156200023257600081600090555060010162000218565b5090565b90565b6111f280620002496000396000f3006080604052600436106100d0576000357c0100000000000000000000000000000000000000000000000000000000900463ffffffff16806306fdde03146100d557806308dcbb51146101655780631a39d8ef146102455780633beb26c414610270578063623bf6fe1461029d578063629f1530146102cc57806371bdce551461035f5780638d4e4083146104225780638da5cb5b146104515780639e874da8146104a8578063b8385339146104d3578063c43fd42a14610500578063c9c695c51461052b578063cb6f16d41461054b575b600080fd5b3480156100e157600080fd5b506100ea61057a565b6040518080602001828103825283818151815260200191508051906020019080838360005b8381101561012a57808201518184015260208101905061010f565b50505050905090810190601f1680156101575780820380516001836020036101000a031916815260200191505b509250505060405180910390f35b34801561017157600080fd5b5061019060048036038101908080359060200190929190505050610618565b60405180806020018473ffffffffffffffffffffffffffffffffffffffff1673ffffffffffffffffffffffffffffffffffffffff168152602001838152602001828103825285818151815260200191508051906020019080838360005b838110156102085780820151818401526020810190506101ed565b50505050905090810190601f1680156102355780820380516001836020036101000a031916815260200191505b5094505050505060405180910390f35b34801561025157600080fd5b5061025a61072a565b6040518082815260200191505060405180910390f35b34801561027c57600080fd5b5061029b60048036038101908080359060200190929190505050610730565b005b3480156102a957600080fd5b506102b261077f565b604051808215151515815260200191505060405180910390f35b3480156102d857600080fd5b5061035d60048036038101908080359060200190929190803573ffffffffffffffffffffffffffffffffffffffff169060200190929190803590602001908201803590602001908080601f0160208091040260200160405190810160405280939291908181526020018383808284378201915050505050509192919290505050610792565b005b34801561036b57600080fd5b506103a0600480360381019080803573ffffffffffffffffffffffffffffffffffffffff169060200190929190505050610828565b6040518083815260200180602001828103825283818151815260200191508051906020019080838360005b838110156103e65780820151818401526020810190506103cb565b50505050905090810190601f1680156104135780820380516001836020036101000a031916815260200191505b50935050505060405180910390f35b34801561042e57600080fd5b50610437610956565b604051808215151515815260200191505060405180910390f35b34801561045d57600080fd5b50610466610969565b604051808273ffffffffffffffffffffffffffffffffffffffff1673ffffffffffffffffffffffffffffffffffffffff16815260200191505060405180910390f35b3480156104b457600080fd5b506104bd61098e565b6040518082815260200191505060405180910390f35b3480156104df57600080fd5b506104fe60048036038101908080359060200190929190505050610994565b005b34801561050c57600080fd5b50610515610dd9565b6040518082815260200191505060405180910390f35b61054960048036038101908080359060200190929190505050610ed6565b005b34801561055757600080fd5b50610560611087565b604051808215151515815260200191505060405180910390f35b60018054600181600116156101000203166002900480601f0160208091040260200160405190810160405280929190818152602001828054600181600116156101000203166002900480156106105780601f106105e557610100808354040283529160200191610610565b820191906000526020600020905b8154815290600101906020018083116105f357829003601f168201915b505050505081565b6060600080600860008581526020019081526020016000206000016008600086815260200190815260200160002060010160009054906101000a900473ffffffffffffffffffffffffffffffffffffffff166008600087815260200190815260200160002060020154828054600181600116156101000203166002900480601f0160208091040260200160405190810160405280929190818152602001828054600181600116156101000203166002900480156107165780601f106106eb57610100808354040283529160200191610716565b820191906000526020600020905b8154815290600101906020018083116106f957829003601f168201915b505050505092509250925092509193909250565b60025481565b600660019054906101000a900460ff1615151561074c57600080fd5b4260048190555060018102600454016005819055506001600660016101000a81548160ff02191690831515021790555050565b600660029054906101000a900460ff1681565b60035483111515156107a357600080fd5b806008600085815260200190815260200160002060000190805190602001906107cd92919061109a565b50816008600085815260200190815260200160002060010160006101000a81548173ffffffffffffffffffffffffffffffffffffffff021916908373ffffffffffffffffffffffffffffffffffffffff160217905550505050565b60006060600960008473ffffffffffffffffffffffffffffffffffffffff1673ffffffffffffffffffffffffffffffffffffffff16815260200190815260200160002060000154600960008573ffffffffffffffffffffffffffffffffffffffff1673ffffffffffffffffffffffffffffffffffffffff168152602001908152602001600020600101808054600181600116156101000203166002900480601f0160208091040260200160405190810160405280929190818152602001828054600181600116156101000203166002900480156109465780601f1061091b57610100808354040283529160200191610946565b820191906000526020600020905b81548152906001019060200180831161092957829003601f168201915b5050505050905091509150915091565b600660009054906101000a900460ff1681565b6000809054906101000a900473ffffffffffffffffffffffffffffffffffffffff1681565b60035481565b60008060008060008060009054906101000a900473ffffffffffffffffffffffffffffffffffffffff1673ffffffffffffffffffffffffffffffffffffffff163373ffffffffffffffffffffffffffffffffffffffff161415156109f757600080fd5b85610a00610dd9565b141515610a0c57600080fd5b600660009054906101000a900460ff16151515610a2857600080fd5b600094505b600354851015610db65785851415610bf1576008600086815260200190815260200160002060010160009054906101000a900473ffffffffffffffffffffffffffffffffffffffff1673ffffffffffffffffffffffffffffffffffffffff166108fc6002549081150290604051600060405180830381858888f19350505050158015610abd573d6000803e3d6000fd5b5060006008600087815260200190815260200160002060020181905550600093505b6008600086815260200190815260200160002060040154841015610bec576008600086815260200190815260200160002060030184815481101515610b2057fe5b9060005260206000200160009054906101000a900473ffffffffffffffffffffffffffffffffffffffff169250600960008473ffffffffffffffffffffffffffffffffffffffff1673ffffffffffffffffffffffffffffffffffffffff16815260200190815260200160002060000154600960008573ffffffffffffffffffffffffffffffffffffffff1673ffffffffffffffffffffffffffffffffffffffff168152602001908152602001600020600001600082825403925050819055508380600101945050610adf565b610da9565b600091505b6008600086815260200190815260200160002060040154821015610d8c576008600086815260200190815260200160002060030182815481101515610c3757fe5b9060005260206000200160009054906101000a900473ffffffffffffffffffffffffffffffffffffffff1690508073ffffffffffffffffffffffffffffffffffffffff166108fc600960008473ffffffffffffffffffffffffffffffffffffffff1673ffffffffffffffffffffffffffffffffffffffff168152602001908152602001600020600001549081150290604051600060405180830381858888f19350505050158015610cec573d6000803e3d6000fd5b50600960008273ffffffffffffffffffffffffffffffffffffffff1673ffffffffffffffffffffffffffffffffffffffff16815260200190815260200160002060000154600960008373ffffffffffffffffffffffffffffffffffffffff1673ffffffffffffffffffffffffffffffffffffffff168152602001908152602001600020600001600082825403925050819055508180600101925050610bf6565b600060086000878152602001908152602001600020600201819055505b8480600101955050610a2d565b6001600660006101000a81548160ff021916908315150217905550505050505050565b600080600060086000808152602001908152602001600020600201549150600090505b600354811015610e52576008600082815260200190815260200160002060020154821015610e455760086000828152602001908152602001600020600201549150806007819055505b8080600101915050610dfc565b6002548210151515610ecc576040517f08c379a00000000000000000000000000000000000000000000000000000000081526004018080602001828103825260198152602001807f546865726520617265206e6f2043686f6963652072656164790000000000000081525060200191505060405180910390fd5b6007549250505090565b6000600660029054906101000a900460ff16151515610ef457600080fd5b6008600083815260200190815260200160002060040160008154809291906001019190505550349050806008600084815260200190815260200160002060020160008282540192505081905550600860008381526020019081526020016000206003013390806001815401808255809150509060018203906000526020600020016000909192909190916101000a81548173ffffffffffffffffffffffffffffffffffffffff021916908373ffffffffffffffffffffffffffffffffffffffff1602179055505080600960003373ffffffffffffffffffffffffffffffffffffffff1673ffffffffffffffffffffffffffffffffffffffff1681526020019081526020016000206000016000828254019250508190555060086000838152602001908152602001600020600001600960003373ffffffffffffffffffffffffffffffffffffffff1673ffffffffffffffffffffffffffffffffffffffff168152602001908152602001600020600101908054600181600116156101000203166002900461108292919061111a565b505050565b600660039054906101000a900460ff1681565b828054600181600116156101000203166002900490600052602060002090601f016020900481019282601f106110db57805160ff1916838001178555611109565b82800160010185558215611109579182015b828111156111085782518255916020019190600101906110ed565b5b50905061111691906111a1565b5090565b828054600181600116156101000203166002900490600052602060002090601f016020900481019282601f106111535780548555611190565b8280016001018555821561119057600052602060002091601f016020900482015b8281111561118f578254825591600101919060010190611174565b5b50905061119d91906111a1565b5090565b6111c391905b808211156111bf5760008160009055506001016111a7565b5090565b905600a165627a7a72305820d75e9c461e11d1c6d6d089b2a083d9ff2f583a27d48cd289cf5345383e431fe80029",
  "source": "pragma solidity ^0.4.23;\n\nimport \"./StageFactory.sol\";\n\ncontract NonVoteStageFactory is StageFactory{\n    constructor(string _name, uint256 _totalAmount,uint256 _numOfChoices) StageFactory(_name,_totalAmount,_numOfChoices) public{\n    isFinalized = false; //초기값 false\n    isTimeset = false;\n    isInvestmentHigher = false;\n\n  }\n\nfunction getChoiceInfo(uint _choiceId) public view returns(string,address,uint){//초이스들 자세하게 각각 확인 가능한 한 함수\n    return (infoChoice[_choiceId].choice_name ,infoChoice[_choiceId].choice_address ,infoChoice[_choiceId].investment_till_now);\n}\n\nfunction attendStage(uint _choice) public payable{//스테이지 참가 함수\n    //require(isValidInvestment(msg.value));\n    require(!isInvestmentHigher);\n\n    infoChoice[_choice].numOfParticipants++; // 초이스 참가 인원 추가\n    uint balance = msg.value;\n    infoChoice[_choice].investment_till_now += balance; // 초이스별 현재까지 투자받은 금액 += balance\n    infoChoice[_choice].participantsOfChoice.push(msg.sender);\n    info_participant[msg.sender].investMoney += balance; // 참가자의 현재까지 투자 금액\n    info_participant[msg.sender].choice_name =  infoChoice[_choice].choice_name; // 참가자의 투자 초이스 이름\n}\n\n  \nfunction checkMaxInvestment()public returns(uint){ // 최대 투자 금액 뭔지 확인하는 함수\n    uint max;\n    max = infoChoice[0].investment_till_now;\n    for(uint i =0;i<numOfChoices;i++){ // 최대 금액이 적힌 초이스 확인\n\n        if (max < infoChoice[i].investment_till_now){\n            max = infoChoice[i].investment_till_now;\n            max_choice_index = i;\n        }\n    }\n    require(max>= totalAmount,\"There are no Choice ready\"); // 적힌 금액이 총 모금액에 도달하는지 확인\n    return max_choice_index;\n}\n\n\n\nfunction finalizeStage(uint _max_choice_index) onlyOwner public{ // 투자 받은 금액이 총 모금액에 도달했을때 확인\n    require(checkMaxInvestment()==_max_choice_index);\n    require(!isFinalized);\n    for(uint i =0;i<numOfChoices;i++){ // refund for those who are not selected\n\n        if (i == _max_choice_index){ // 목표 금액에 도달했고 목표 금액 넘은 것 중에서 최대투자 금액 index\n            infoChoice[i].choice_address.transfer(totalAmount); //사장님께 송금\n            infoChoice[i].investment_till_now = 0;\n\n            for(uint j=0;j<infoChoice[i].numOfParticipants;j++){ // 있어도 그만 없어도 그만\n                address selected = infoChoice[i].participantsOfChoice[j];\n                info_participant[selected].investMoney -= info_participant[selected].investMoney;\n            }\n        }\n        else{\n            for(uint k=0;k<infoChoice[i].numOfParticipants;k++){ // 얘네는 선택 받지 못한 애들이라서 돈 돌려줘야함\n                address notSelected = infoChoice[i].participantsOfChoice[k];\n                notSelected.transfer(info_participant[notSelected].investMoney);\n                info_participant[notSelected].investMoney -= info_participant[notSelected].investMoney;\n            }\n            infoChoice[i].investment_till_now = 0;\n        }\n    }\n\n    isFinalized=true;\n}\n//투자 금액이 총 모금액에 도달하지 않았고 시간또한 초과 되었을때 함수 만들어야함\n}\n",
  "sourcePath": "/home/kim/Desktop/Solidity/Final/contracts/NonVoteStageFactory.sol",
  "compiler": {
    "name": "solc",
    "version": "0.4.25+commit.59dbf8f1.Emscripten.clang"
  },
  "schemaVersion": "2.0.2",
  "updatedAt": "2021-05-28T17:16:02.653Z"
}