{
  "contractName": "StageFactory",
  "abi": [
    {
      "constant": true,
      "inputs": [],
      "name": "name",
      "outputs": [
        {
          "name": "",
          "type": "string"
        }
      ],
      "payable": false,
      "stateMutability": "view",
      "type": "function"
    },
    {
      "constant": true,
      "inputs": [],
      "name": "totalAmount",
      "outputs": [
        {
          "name": "",
          "type": "uint256"
        }
      ],
      "payable": false,
      "stateMutability": "view",
      "type": "function"
    },
    {
      "constant": true,
      "inputs": [],
      "name": "isInvestmentHigher",
      "outputs": [
        {
          "name": "",
          "type": "bool"
        }
      ],
      "payable": false,
      "stateMutability": "view",
      "type": "function"
    },
    {
      "constant": true,
      "inputs": [],
      "name": "isFinalized",
      "outputs": [
        {
          "name": "",
          "type": "bool"
        }
      ],
      "payable": false,
      "stateMutability": "view",
      "type": "function"
    },
    {
      "constant": true,
      "inputs": [],
      "name": "owner",
      "outputs": [
        {
          "name": "",
          "type": "address"
        }
      ],
      "payable": false,
      "stateMutability": "view",
      "type": "function"
    },
    {
      "constant": true,
      "inputs": [],
      "name": "numOfChoices",
      "outputs": [
        {
          "name": "",
          "type": "uint256"
        }
      ],
      "payable": false,
      "stateMutability": "view",
      "type": "function"
    },
    {
      "constant": true,
      "inputs": [],
      "name": "isRefundingAllowed",
      "outputs": [
        {
          "name": "",
          "type": "bool"
        }
      ],
      "payable": false,
      "stateMutability": "view",
      "type": "function"
    },
    {
      "inputs": [
        {
          "name": "_name",
          "type": "string"
        },
        {
          "name": "_totalAmount",
          "type": "uint256"
        },
        {
          "name": "_numOfChoices",
          "type": "uint256"
        }
      ],
      "payable": false,
      "stateMutability": "nonpayable",
      "type": "constructor"
    },
    {
      "anonymous": false,
      "inputs": [
        {
          "indexed": false,
          "name": "zombieId",
          "type": "uint256"
        },
        {
          "indexed": false,
          "name": "name",
          "type": "string"
        },
        {
          "indexed": false,
          "name": "totalAmount",
          "type": "uint256"
        }
      ],
      "name": "NewStage",
      "type": "event"
    },
    {
      "constant": false,
      "inputs": [
        {
          "name": "_endTime",
          "type": "uint256"
        }
      ],
      "name": "setTime",
      "outputs": [],
      "payable": false,
      "stateMutability": "nonpayable",
      "type": "function"
    },
    {
      "constant": false,
      "inputs": [
        {
          "name": "_num",
          "type": "uint256"
        },
        {
          "name": "_choice_address",
          "type": "address"
        },
        {
          "name": "_choice_name",
          "type": "string"
        }
      ],
      "name": "setChoices",
      "outputs": [],
      "payable": false,
      "stateMutability": "nonpayable",
      "type": "function"
    },
    {
      "constant": true,
      "inputs": [
        {
          "name": "_participant",
          "type": "address"
        }
      ],
      "name": "getParticipantInfo",
      "outputs": [
        {
          "name": "",
          "type": "uint256"
        },
        {
          "name": "",
          "type": "string"
        }
      ],
      "payable": false,
      "stateMutability": "view",
      "type": "function"
    }
  ],
  "bytecode": "0x608060405234801561001057600080fd5b506040516109c33803806109c3833981018060405281019080805182019291906020018051906020019092919080519060200190929190505050336000806101000a81548173ffffffffffffffffffffffffffffffffffffffff021916908373ffffffffffffffffffffffffffffffffffffffff16021790555082600190805190602001906100a092919061012d565b50670de0b6b3a76400008202600281905550806003819055506000600660006101000a81548160ff0219169083151502179055506000600660016101000a81548160ff0219169083151502179055506000600660026101000a81548160ff0219169083151502179055506000600660036101000a81548160ff0219169083151502179055505050506101d2565b828054600181600116156101000203166002900490600052602060002090601f016020900481019282601f1061016e57805160ff191683800117855561019c565b8280016001018555821561019c579182015b8281111561019b578251825591602001919060010190610180565b5b5090506101a991906101ad565b5090565b6101cf91905b808211156101cb5760008160009055506001016101b3565b5090565b90565b6107e2806101e16000396000f3006080604052600436106100a4576000357c0100000000000000000000000000000000000000000000000000000000900463ffffffff16806306fdde03146100a95780631a39d8ef146101395780633beb26c414610164578063623bf6fe14610191578063629f1530146101c057806371bdce55146102535780638d4e4083146103165780638da5cb5b146103455780639e874da81461039c578063cb6f16d4146103c7575b600080fd5b3480156100b557600080fd5b506100be6103f6565b6040518080602001828103825283818151815260200191508051906020019080838360005b838110156100fe5780820151818401526020810190506100e3565b50505050905090810190601f16801561012b5780820380516001836020036101000a031916815260200191505b509250505060405180910390f35b34801561014557600080fd5b5061014e610494565b6040518082815260200191505060405180910390f35b34801561017057600080fd5b5061018f6004803603810190808035906020019092919050505061049a565b005b34801561019d57600080fd5b506101a66104e9565b604051808215151515815260200191505060405180910390f35b3480156101cc57600080fd5b5061025160048036038101908080359060200190929190803573ffffffffffffffffffffffffffffffffffffffff169060200190929190803590602001908201803590602001908080601f01602080910402602001604051908101604052809392919081815260200183838082843782019150505050505091929192905050506104fc565b005b34801561025f57600080fd5b50610294600480360381019080803573ffffffffffffffffffffffffffffffffffffffff169060200190929190505050610592565b6040518083815260200180602001828103825283818151815260200191508051906020019080838360005b838110156102da5780820151818401526020810190506102bf565b50505050905090810190601f1680156103075780820380516001836020036101000a031916815260200191505b50935050505060405180910390f35b34801561032257600080fd5b5061032b6106c0565b604051808215151515815260200191505060405180910390f35b34801561035157600080fd5b5061035a6106d3565b604051808273ffffffffffffffffffffffffffffffffffffffff1673ffffffffffffffffffffffffffffffffffffffff16815260200191505060405180910390f35b3480156103a857600080fd5b506103b16106f8565b6040518082815260200191505060405180910390f35b3480156103d357600080fd5b506103dc6106fe565b604051808215151515815260200191505060405180910390f35b60018054600181600116156101000203166002900480601f01602080910402602001604051908101604052809291908181526020018280546001816001161561010002031660029004801561048c5780601f106104615761010080835404028352916020019161048c565b820191906000526020600020905b81548152906001019060200180831161046f57829003601f168201915b505050505081565b60025481565b600660019054906101000a900460ff161515156104b657600080fd5b4260048190555060018102600454016005819055506001600660016101000a81548160ff02191690831515021790555050565b600660029054906101000a900460ff1681565b600354831115151561050d57600080fd5b80600860008581526020019081526020016000206000019080519060200190610537929190610711565b50816008600085815260200190815260200160002060010160006101000a81548173ffffffffffffffffffffffffffffffffffffffff021916908373ffffffffffffffffffffffffffffffffffffffff160217905550505050565b60006060600960008473ffffffffffffffffffffffffffffffffffffffff1673ffffffffffffffffffffffffffffffffffffffff16815260200190815260200160002060000154600960008573ffffffffffffffffffffffffffffffffffffffff1673ffffffffffffffffffffffffffffffffffffffff168152602001908152602001600020600101808054600181600116156101000203166002900480601f0160208091040260200160405190810160405280929190818152602001828054600181600116156101000203166002900480156106b05780601f10610685576101008083540402835291602001916106b0565b820191906000526020600020905b81548152906001019060200180831161069357829003601f168201915b5050505050905091509150915091565b600660009054906101000a900460ff1681565b6000809054906101000a900473ffffffffffffffffffffffffffffffffffffffff1681565b60035481565b600660039054906101000a900460ff1681565b828054600181600116156101000203166002900490600052602060002090601f016020900481019282601f1061075257805160ff1916838001178555610780565b82800160010185558215610780579182015b8281111561077f578251825591602001919060010190610764565b5b50905061078d9190610791565b5090565b6107b391905b808211156107af576000816000905550600101610797565b5090565b905600a165627a7a72305820fc7ec73ef4952c35198af5bdc1e0d434a933d803e54b457fb09f8e0b56f7b0390029",
  "source": "pragma solidity ^0.4.23;\n//pragma experimental ABIEncoderV2;\n\nimport \"./Ownable.sol\";\n\ncontract StageFactory is Ownable{\n\n    event NewStage(uint zombieId, string name, uint totalAmount);\n\n    string public name;  // 스테이지 이름\n    uint256 public totalAmount; // 총 모금액\n    uint256 public numOfChoices; // 초이스 개수\n    uint256 startTime;  // 모집 시작 시간\n    uint256 endTime;    // 모집 종료 시간\n    bool public isFinalized; // 현재 컨트랙트(스테이지) 종료 되었는지\n    bool isTimeset;   // 현재 컨트랙트 기한이 세팅되었는지\n    bool public isInvestmentHigher;\n    bool public isRefundingAllowed;\n    uint max_choice_index;  // 목표금액에 달성한다면 최초로 가장 많이 달성한 금액\n    mapping(uint   => Choice)      infoChoice;        // 초이스 별 금액과 현재까지 투자받은 비용\n    mapping(address=> Participant) info_participant; // 투자자에게 받은 금액과 선택 메뉴\n\n\n    struct Choice{\n        string choice_name;        // 초이스 이름 ex) chicken\n        address choice_address;    // 사장님 돈 받을 주소\n        uint investment_till_now;  // 현재까지 초이스별 투자받은 금액\n        address[] participantsOfChoice; // 초이스별 참가한 사람들 이름\n        uint256 numOfParticipants;  // 초이스별 참가한 사람들 숫자\n        uint256 numOfVotes;         // 추후에 투표하기 위해서 만들어 놓음\n    }\n\n    struct Participant{\n        uint256 investMoney;  //참가자의 어떤 초이스에 얼마나 투자 했는지(금액)\n        string choice_name;   //참가자가 어떤 초이스에 투자 했는지(이름)\n    }\n\n\nconstructor(string _name, uint256 _totalAmount,uint256 _numOfChoices) public{\n    name=_name;\n    totalAmount=_totalAmount*1000000000000000000; // ether to wei\n    numOfChoices=_numOfChoices;\n    isFinalized = false; //초기값 flas\n    isTimeset = false;\n    isInvestmentHigher = false;\n    isRefundingAllowed = false;\n}\n\nfunction setTime(uint256 _endTime) public{ // one time only\n    require(!isTimeset);\n    startTime = now;\n    endTime = startTime + _endTime*1 seconds; //편하게 초 단위로 설정했는데 매번 세팅하기 귀찮아서 뒤에서 안쓴다\n    isTimeset = true;\n}\n\nfunction setChoices(uint _num,address _choice_address,string _choice_name) public{ //컨트랙트에 초이스를 적어두는 함수\n    require(_num<=numOfChoices); // 최대 개수 제한\n    infoChoice[_num].choice_name=_choice_name; // Choice 이름\n    infoChoice[_num].choice_address =_choice_address; // Choice 즉 추후에 선정된다면 돈을 받을 사장님 address\n}\n\n/*\nfunction getChoices()public view returns(string[]){ // 초이스들 한번에 확인 할 수 있는 함수 자세하게는 안됨\n    string[] memory result = new string[](numOfChoices);\n    uint counter= 0;\n    for(uint i=0;i<numOfChoices;i++){\n        result[counter] = infoChoice[i].choice_name;\n        counter++;\n    }\n    return (result);\n}\n*/\n\nfunction isValidInvestment(uint256 _investment) internal view returns(bool){ //금액 valid 확인 함수\n    bool nonZeroInvestment = _investment != 0;\n    bool withinPeriod = now >= startTime && now <= endTime;\n    return nonZeroInvestment && withinPeriod;\n}\n\nfunction getParticipantInfo(address _participant) public view returns(uint256,string){\n    return (info_participant[_participant].investMoney,info_participant[_participant].choice_name);\n}\n\n}\n",
  "sourcePath": "/home/kim/Desktop/Solidity/Final/contracts/StageFactory.sol",
  "compiler": {
    "name": "solc",
    "version": "0.4.25+commit.59dbf8f1.Emscripten.clang"
  },
  "schemaVersion": "2.0.2",
  "updatedAt": "2021-05-28T17:13:34.199Z"
}