{
  "contractName": "VoteStageFactory",
  "abi": [
    {
      "constant": true,
      "inputs": [],
      "name": "name",
      "outputs": [
        {
          "name": "",
          "type": "string"
        }
      ],
      "payable": false,
      "stateMutability": "view",
      "type": "function"
    },
    {
      "constant": true,
      "inputs": [],
      "name": "winningChoiceId",
      "outputs": [
        {
          "name": "",
          "type": "uint256"
        }
      ],
      "payable": false,
      "stateMutability": "view",
      "type": "function"
    },
    {
      "constant": true,
      "inputs": [],
      "name": "totalAmount",
      "outputs": [
        {
          "name": "",
          "type": "uint256"
        }
      ],
      "payable": false,
      "stateMutability": "view",
      "type": "function"
    },
    {
      "constant": true,
      "inputs": [],
      "name": "investmentReceived",
      "outputs": [
        {
          "name": "",
          "type": "uint256"
        }
      ],
      "payable": false,
      "stateMutability": "view",
      "type": "function"
    },
    {
      "constant": true,
      "inputs": [],
      "name": "investmentRefunded",
      "outputs": [
        {
          "name": "",
          "type": "uint256"
        }
      ],
      "payable": false,
      "stateMutability": "view",
      "type": "function"
    },
    {
      "constant": false,
      "inputs": [
        {
          "name": "_endTime",
          "type": "uint256"
        }
      ],
      "name": "setTime",
      "outputs": [],
      "payable": false,
      "stateMutability": "nonpayable",
      "type": "function"
    },
    {
      "constant": true,
      "inputs": [],
      "name": "isInvestmentHigher",
      "outputs": [
        {
          "name": "",
          "type": "bool"
        }
      ],
      "payable": false,
      "stateMutability": "view",
      "type": "function"
    },
    {
      "constant": false,
      "inputs": [
        {
          "name": "_num",
          "type": "uint256"
        },
        {
          "name": "_choice_address",
          "type": "address"
        },
        {
          "name": "_choice_name",
          "type": "string"
        }
      ],
      "name": "setChoices",
      "outputs": [],
      "payable": false,
      "stateMutability": "nonpayable",
      "type": "function"
    },
    {
      "constant": true,
      "inputs": [
        {
          "name": "_participant",
          "type": "address"
        }
      ],
      "name": "getParticipantInfo",
      "outputs": [
        {
          "name": "",
          "type": "uint256"
        },
        {
          "name": "",
          "type": "string"
        }
      ],
      "payable": false,
      "stateMutability": "view",
      "type": "function"
    },
    {
      "constant": true,
      "inputs": [],
      "name": "isFinalized",
      "outputs": [
        {
          "name": "",
          "type": "bool"
        }
      ],
      "payable": false,
      "stateMutability": "view",
      "type": "function"
    },
    {
      "constant": true,
      "inputs": [],
      "name": "owner",
      "outputs": [
        {
          "name": "",
          "type": "address"
        }
      ],
      "payable": false,
      "stateMutability": "view",
      "type": "function"
    },
    {
      "constant": true,
      "inputs": [],
      "name": "numOfChoices",
      "outputs": [
        {
          "name": "",
          "type": "uint256"
        }
      ],
      "payable": false,
      "stateMutability": "view",
      "type": "function"
    },
    {
      "constant": true,
      "inputs": [],
      "name": "isRefundingAllowed",
      "outputs": [
        {
          "name": "",
          "type": "bool"
        }
      ],
      "payable": false,
      "stateMutability": "view",
      "type": "function"
    },
    {
      "constant": true,
      "inputs": [],
      "name": "VoteToken",
      "outputs": [
        {
          "name": "",
          "type": "address"
        }
      ],
      "payable": false,
      "stateMutability": "view",
      "type": "function"
    },
    {
      "inputs": [
        {
          "name": "_name",
          "type": "string"
        },
        {
          "name": "_totalAmount",
          "type": "uint256"
        },
        {
          "name": "_numOfChoices",
          "type": "uint256"
        }
      ],
      "payable": false,
      "stateMutability": "nonpayable",
      "type": "constructor"
    },
    {
      "anonymous": false,
      "inputs": [
        {
          "indexed": false,
          "name": "zombieId",
          "type": "uint256"
        },
        {
          "indexed": false,
          "name": "name",
          "type": "string"
        },
        {
          "indexed": false,
          "name": "totalAmount",
          "type": "uint256"
        }
      ],
      "name": "NewStage",
      "type": "event"
    },
    {
      "constant": false,
      "inputs": [],
      "name": "attendStage",
      "outputs": [],
      "payable": true,
      "stateMutability": "payable",
      "type": "function"
    },
    {
      "constant": false,
      "inputs": [],
      "name": "finalize",
      "outputs": [],
      "payable": false,
      "stateMutability": "nonpayable",
      "type": "function"
    },
    {
      "constant": false,
      "inputs": [],
      "name": "refund",
      "outputs": [],
      "payable": false,
      "stateMutability": "nonpayable",
      "type": "function"
    },
    {
      "constant": false,
      "inputs": [
        {
          "name": "_choiceId",
          "type": "uint256"
        },
        {
          "name": "_VoteToken",
          "type": "uint256"
        }
      ],
      "name": "Vote",
      "outputs": [],
      "payable": false,
      "stateMutability": "nonpayable",
      "type": "function"
    },
    {
      "constant": false,
      "inputs": [],
      "name": "getMyVoteNum",
      "outputs": [
        {
          "name": "",
          "type": "uint256"
        }
      ],
      "payable": false,
      "stateMutability": "nonpayable",
      "type": "function"
    },
    {
      "constant": true,
      "inputs": [
        {
          "name": "_choiceId",
          "type": "uint256"
        }
      ],
      "name": "getChoiceInfoVotes",
      "outputs": [
        {
          "name": "",
          "type": "string"
        },
        {
          "name": "",
          "type": "uint256"
        }
      ],
      "payable": false,
      "stateMutability": "view",
      "type": "function"
    },
    {
      "constant": false,
      "inputs": [],
      "name": "tallyVotes",
      "outputs": [
        {
          "name": "",
          "type": "uint256"
        }
      ],
      "payable": false,
      "stateMutability": "nonpayable",
      "type": "function"
    },
    {
      "constant": false,
      "inputs": [
        {
          "name": "_winningChoiceId",
          "type": "uint256"
        }
      ],
      "name": "endVote",
      "outputs": [],
      "payable": false,
      "stateMutability": "nonpayable",
      "type": "function"
    }
  ],
  "bytecode": "0x60806040523480156200001157600080fd5b50604051620029a9380380620029a9833981018060405281019080805182019291906020018051906020019092919080519060200190929190505050828282336000806101000a81548173ffffffffffffffffffffffffffffffffffffffff021916908373ffffffffffffffffffffffffffffffffffffffff1602179055508260019080519060200190620000a89291906200021d565b50670de0b6b3a76400008202600281905550806003819055506000600660006101000a81548160ff0219169083151502179055506000600660016101000a81548160ff0219169083151502179055506000600660026101000a81548160ff0219169083151502179055506000600660036101000a81548160ff0219169083151502179055505050506000600660006101000a81548160ff0219169083151502179055506000600660016101000a81548160ff0219169083151502179055506000600660026101000a81548160ff0219169083151502179055506200019a620001e3640100000000026401000000009004565b600d60006101000a81548173ffffffffffffffffffffffffffffffffffffffff021916908373ffffffffffffffffffffffffffffffffffffffff160217905550505050620002dd565b600080620001f0620002a4565b80828152602001915050604051809103906000f08015801562000217573d6000803e3d6000fd5b50905090565b828054600181600116156101000203166002900490600052602060002090601f016020900481019282601f106200026057805160ff191683800117855562000291565b8280016001018555821562000291579182015b828111156200029057825182559160200191906001019062000273565b5b509050620002a09190620002b5565b5090565b604051611176806200183383390190565b620002da91905b80821115620002d6576000816000905550600101620002bc565b5090565b90565b61154680620002ed6000396000f300608060405260043610610128576000357c0100000000000000000000000000000000000000000000000000000000900463ffffffff16806306fdde031461012d57806311007370146101bd5780631a39d8ef146101e85780631c0a5c101461021357806333952ef91461023e578063378a21781461027557806338ef9380146102a05780633beb26c4146102cb5780634bb278f3146102f8578063590e1ae31461030f578063623bf6fe14610326578063629f153014610355578063679f07d2146103e857806371bdce55146103f2578063865df0ad146104b55780638d4e4083146104e25780638da5cb5b146105115780639e874da814610568578063c5a44c4814610593578063cb6f16d4146105be578063dc31aacb146105ed578063e6011adc1461069a575b600080fd5b34801561013957600080fd5b506101426106f1565b6040518080602001828103825283818151815260200191508051906020019080838360005b83811015610182578082015181840152602081019050610167565b50505050905090810190601f1680156101af5780820380516001836020036101000a031916815260200191505b509250505060405180910390f35b3480156101c957600080fd5b506101d261078f565b6040518082815260200191505060405180910390f35b3480156101f457600080fd5b506101fd610795565b6040518082815260200191505060405180910390f35b34801561021f57600080fd5b5061022861079b565b6040518082815260200191505060405180910390f35b34801561024a57600080fd5b5061027360048036038101908080359060200190929190803590602001909291905050506107a1565b005b34801561028157600080fd5b5061028a6109ec565b6040518082815260200191505060405180910390f35b3480156102ac57600080fd5b506102b5610a5e565b6040518082815260200191505060405180910390f35b3480156102d757600080fd5b506102f660048036038101908080359060200190929190505050610a64565b005b34801561030457600080fd5b5061030d610ab3565b005b34801561031b57600080fd5b50610324610c24565b005b34801561033257600080fd5b5061033b610d34565b604051808215151515815260200191505060405180910390f35b34801561036157600080fd5b506103e660048036038101908080359060200190929190803573ffffffffffffffffffffffffffffffffffffffff169060200190929190803590602001908201803590602001908080601f0160208091040260200160405190810160405280939291908181526020018383808284378201915050505050509192919290505050610d47565b005b6103f0610ddd565b005b3480156103fe57600080fd5b50610433600480360381019080803573ffffffffffffffffffffffffffffffffffffffff169060200190929190505050610f05565b6040518083815260200180602001828103825283818151815260200191508051906020019080838360005b8381101561047957808201518184015260208101905061045e565b50505050905090810190601f1680156104a65780820380516001836020036101000a031916815260200191505b50935050505060405180910390f35b3480156104c157600080fd5b506104e060048036038101908080359060200190929190505050611033565b005b3480156104ee57600080fd5b506104f7611120565b604051808215151515815260200191505060405180910390f35b34801561051d57600080fd5b50610526611133565b604051808273ffffffffffffffffffffffffffffffffffffffff1673ffffffffffffffffffffffffffffffffffffffff16815260200191505060405180910390f35b34801561057457600080fd5b5061057d611158565b6040518082815260200191505060405180910390f35b34801561059f57600080fd5b506105a861115e565b6040518082815260200191505060405180910390f35b3480156105ca57600080fd5b506105d361125d565b604051808215151515815260200191505060405180910390f35b3480156105f957600080fd5b5061061860048036038101908080359060200190929190505050611270565b6040518080602001838152602001828103825284818151815260200191508051906020019080838360005b8381101561065e578082015181840152602081019050610643565b50505050905090810190601f16801561068b5780820380516001836020036101000a031916815260200191505b50935050505060405180910390f35b3480156106a657600080fd5b506106af611346565b604051808273ffffffffffffffffffffffffffffffffffffffff1673ffffffffffffffffffffffffffffffffffffffff16815260200191505060405180910390f35b60018054600181600116156101000203166002900480601f0160208091040260200160405190810160405280929190818152602001828054600181600116156101000203166002900480156107875780601f1061075c57610100808354040283529160200191610787565b820191906000526020600020905b81548152906001019060200180831161076a57829003601f168201915b505050505081565b600c5481565b60025481565b600a5481565b6000339050606482111515156107b657600080fd5b6000600d60009054906101000a900473ffffffffffffffffffffffffffffffffffffffff1673ffffffffffffffffffffffffffffffffffffffff1663758654c2836040518263ffffffff167c0100000000000000000000000000000000000000000000000000000000028152600401808273ffffffffffffffffffffffffffffffffffffffff1673ffffffffffffffffffffffffffffffffffffffff168152602001915050602060405180830381600087803b15801561087557600080fd5b505af1158015610889573d6000803e3d6000fd5b505050506040513d602081101561089f57600080fd5b8101908080519060200190929190505050141515156108bd57600080fd5b81600d60009054906101000a900473ffffffffffffffffffffffffffffffffffffffff1673ffffffffffffffffffffffffffffffffffffffff1663758654c2836040518263ffffffff167c0100000000000000000000000000000000000000000000000000000000028152600401808273ffffffffffffffffffffffffffffffffffffffff1673ffffffffffffffffffffffffffffffffffffffff168152602001915050602060405180830381600087803b15801561097b57600080fd5b505af115801561098f573d6000803e3d6000fd5b505050506040513d60208110156109a557600080fd5b8101908080519060200190929190505050101515156109c357600080fd5b816008600085815260200190815260200160002060050160008282540192505081905550505050565b6000806000806000925060009150600090505b600354811015610a51578260086000838152602001908152602001600020600501541115610a4457600860008281526020019081526020016000206005015492508091505b80806001019150506109ff565b81600c8190555050505090565b600b5481565b600660019054906101000a900460ff16151515610a8057600080fd5b4260048190555060018102600454016005819055506001600660016101000a81548160ff02191690831515021790555050565b6000806000809054906101000a900473ffffffffffffffffffffffffffffffffffffffff1673ffffffffffffffffffffffffffffffffffffffff163373ffffffffffffffffffffffffffffffffffffffff16141515610b1157600080fd5b600660009054906101000a900460ff1615610b2b57600080fd5b60019150600254600a54101590508115610c20578015610be857600d60009054906101000a900473ffffffffffffffffffffffffffffffffffffffff1673ffffffffffffffffffffffffffffffffffffffff166386d1a69f6040518163ffffffff167c0100000000000000000000000000000000000000000000000000000000028152600401600060405180830381600087803b158015610bcb57600080fd5b505af1158015610bdf573d6000803e3d6000fd5b50505050610c04565b6001600660036101000a81548160ff0219169083151502179055505b6001600660006101000a81548160ff0219169083151502179055505b5050565b600080600660039054906101000a900460ff161515610c4257600080fd5b339150600960008373ffffffffffffffffffffffffffffffffffffffff1673ffffffffffffffffffffffffffffffffffffffff1681526020019081526020016000206000015490506000811415610c9857600080fd5b6000600960008473ffffffffffffffffffffffffffffffffffffffff1673ffffffffffffffffffffffffffffffffffffffff1681526020019081526020016000206000018190555080600b600082825401925050819055508173ffffffffffffffffffffffffffffffffffffffff166108fc829081150290604051600060405180830381858888f193505050501515610d3057600080fd5b5050565b600660029054906101000a900460ff1681565b6003548311151515610d5857600080fd5b80600860008581526020019081526020016000206000019080519060200190610d82929190611475565b50816008600085815260200190815260200160002060010160006101000a81548173ffffffffffffffffffffffffffffffffffffffff021916908373ffffffffffffffffffffffffffffffffffffffff160217905550505050565b6000806000600660029054906101000a900460ff16151515610dfe57600080fd5b339250349150600254600a5483011115610e6e57600a546002548303019050600a546002540391508273ffffffffffffffffffffffffffffffffffffffff166108fc829081150290604051600060405180830381858888f19350505050158015610e6c573d6000803e3d6000fd5b505b81600960008573ffffffffffffffffffffffffffffffffffffffff1673ffffffffffffffffffffffffffffffffffffffff1681526020019081526020016000206000016000828254019250508190555081600a60008282540192505081905550610ed8838361136c565b600254600a541415610f00576001600660026101000a81548160ff0219169083151502179055505b505050565b60006060600960008473ffffffffffffffffffffffffffffffffffffffff1673ffffffffffffffffffffffffffffffffffffffff16815260200190815260200160002060000154600960008573ffffffffffffffffffffffffffffffffffffffff1673ffffffffffffffffffffffffffffffffffffffff168152602001908152602001600020600101808054600181600116156101000203166002900480601f0160208091040260200160405190810160405280929190818152602001828054600181600116156101000203166002900480156110235780601f10610ff857610100808354040283529160200191611023565b820191906000526020600020905b81548152906001019060200180831161100657829003601f168201915b5050505050905091509150915091565b6000809054906101000a900473ffffffffffffffffffffffffffffffffffffffff1673ffffffffffffffffffffffffffffffffffffffff163373ffffffffffffffffffffffffffffffffffffffff1614151561108e57600080fd5b80600c5414151561109e57600080fd5b6008600082815260200190815260200160002060010160009054906101000a900473ffffffffffffffffffffffffffffffffffffffff1673ffffffffffffffffffffffffffffffffffffffff166108fc6002549081150290604051600060405180830381858888f1935050505015801561111c573d6000803e3d6000fd5b5050565b600660009054906101000a900460ff1681565b6000809054906101000a900473ffffffffffffffffffffffffffffffffffffffff1681565b60035481565b6000600d60009054906101000a900473ffffffffffffffffffffffffffffffffffffffff1673ffffffffffffffffffffffffffffffffffffffff1663758654c2336040518263ffffffff167c0100000000000000000000000000000000000000000000000000000000028152600401808273ffffffffffffffffffffffffffffffffffffffff1673ffffffffffffffffffffffffffffffffffffffff168152602001915050602060405180830381600087803b15801561121d57600080fd5b505af1158015611231573d6000803e3d6000fd5b505050506040513d602081101561124757600080fd5b8101908080519060200190929190505050905090565b600660039054906101000a900460ff1681565b60606000600860008481526020019081526020016000206000016008600085815260200190815260200160002060050154818054600181600116156101000203166002900480601f0160208091040260200160405190810160405280929190818152602001828054600181600116156101000203166002900480156113365780601f1061130b57610100808354040283529160200191611336565b820191906000526020600020905b81548152906001019060200180831161131957829003601f168201915b5050505050915091509150915091565b600d60009054906101000a900473ffffffffffffffffffffffffffffffffffffffff1681565b60006113778261145b565b9050600d60009054906101000a900473ffffffffffffffffffffffffffffffffffffffff1673ffffffffffffffffffffffffffffffffffffffff166340c10f1984836040518363ffffffff167c0100000000000000000000000000000000000000000000000000000000028152600401808373ffffffffffffffffffffffffffffffffffffffff1673ffffffffffffffffffffffffffffffffffffffff16815260200182815260200192505050600060405180830381600087803b15801561143e57600080fd5b505af1158015611452573d6000803e3d6000fd5b50505050505050565b60006002546064830281151561146d57fe5b049050919050565b828054600181600116156101000203166002900490600052602060002090601f016020900481019282601f106114b657805160ff19168380011785556114e4565b828001600101855582156114e4579182015b828111156114e35782518255916020019190600101906114c8565b5b5090506114f191906114f5565b5090565b61151791905b808211156115135760008160009055506001016114fb565b5090565b905600a165627a7a72305820d27123e84c34d26e78f71a2375e86fcc31f0d56dc128a598896438ffe439329b002960806040526000600360146101000a81548160ff02191690831515021790555034801561002b57600080fd5b50604051602080611176833981018060405281019080805190602001909291905050508033600360006101000a81548173ffffffffffffffffffffffffffffffffffffffff021916908373ffffffffffffffffffffffffffffffffffffffff1602179055506100cb600360009054906101000a900473ffffffffffffffffffffffffffffffffffffffff16826100d2640100000000026401000000009004565b5050610205565b600360009054906101000a900473ffffffffffffffffffffffffffffffffffffffff1673ffffffffffffffffffffffffffffffffffffffff163373ffffffffffffffffffffffffffffffffffffffff1614151561012e57600080fd5b806000808473ffffffffffffffffffffffffffffffffffffffff1673ffffffffffffffffffffffffffffffffffffffff168152602001908152602001600020600082825401925050819055508173ffffffffffffffffffffffffffffffffffffffff16600360009054906101000a900473ffffffffffffffffffffffffffffffffffffffff1673ffffffffffffffffffffffffffffffffffffffff167fddf252ad1be2c89b69c2b068fc378daa952ba7f163c4a11628f55a4df523b3ef836040518082815260200191505060405180910390a35050565b610f62806102146000396000f3006080604052600436106100c5576000357c0100000000000000000000000000000000000000000000000000000000900463ffffffff16806323b872dd146100ca57806340c10f191461014f57806342966c681461019c578063758654c2146101c957806386d1a69f146102205780638da5cb5b14610237578063961325211461028e578063a9059cbb146102bd578063b414d4b61461030a578063c1dbd9b214610365578063dd62ed3e146103ca578063e724529c14610441578063fabde80c14610490575b600080fd5b3480156100d657600080fd5b50610135600480360381019080803573ffffffffffffffffffffffffffffffffffffffff169060200190929190803573ffffffffffffffffffffffffffffffffffffffff169060200190929190803590602001909291905050506104e7565b604051808215151515815260200191505060405180910390f35b34801561015b57600080fd5b5061019a600480360381019080803573ffffffffffffffffffffffffffffffffffffffff16906020019092919080359060200190929190505050610517565b005b3480156101a857600080fd5b506101c76004803603810190808035906020019092919050505061064a565b005b3480156101d557600080fd5b5061020a600480360381019080803573ffffffffffffffffffffffffffffffffffffffff1690602001909291905050506106e6565b6040518082815260200191505060405180910390f35b34801561022c57600080fd5b5061023561072e565b005b34801561024357600080fd5b5061024c6107a7565b604051808273ffffffffffffffffffffffffffffffffffffffff1673ffffffffffffffffffffffffffffffffffffffff16815260200191505060405180910390f35b34801561029a57600080fd5b506102a36107cd565b604051808215151515815260200191505060405180910390f35b3480156102c957600080fd5b50610308600480360381019080803573ffffffffffffffffffffffffffffffffffffffff169060200190929190803590602001909291905050506107e0565b005b34801561031657600080fd5b5061034b600480360381019080803573ffffffffffffffffffffffffffffffffffffffff169060200190929190505050610809565b604051808215151515815260200191505060405180910390f35b34801561037157600080fd5b506103b0600480360381019080803573ffffffffffffffffffffffffffffffffffffffff16906020019092919080359060200190929190505050610829565b604051808215151515815260200191505060405180910390f35b3480156103d657600080fd5b5061042b600480360381019080803573ffffffffffffffffffffffffffffffffffffffff169060200190929190803573ffffffffffffffffffffffffffffffffffffffff1690602001909291905050506108b6565b6040518082815260200191505060405180910390f35b34801561044d57600080fd5b5061048e600480360381019080803573ffffffffffffffffffffffffffffffffffffffff1690602001909291908035151590602001909291905050506108db565b005b34801561049c57600080fd5b506104d1600480360381019080803573ffffffffffffffffffffffffffffffffffffffff169060200190929190505050610a01565b6040518082815260200191505060405180910390f35b6000600360149054906101000a900460ff16151561050457600080fd5b61050f848484610a19565b509392505050565b600360009054906101000a900473ffffffffffffffffffffffffffffffffffffffff1673ffffffffffffffffffffffffffffffffffffffff163373ffffffffffffffffffffffffffffffffffffffff1614151561057357600080fd5b806000808473ffffffffffffffffffffffffffffffffffffffff1673ffffffffffffffffffffffffffffffffffffffff168152602001908152602001600020600082825401925050819055508173ffffffffffffffffffffffffffffffffffffffff16600360009054906101000a900473ffffffffffffffffffffffffffffffffffffffff1673ffffffffffffffffffffffffffffffffffffffff167fddf252ad1be2c89b69c2b068fc378daa952ba7f163c4a11628f55a4df523b3ef836040518082815260200191505060405180910390a35050565b806000803373ffffffffffffffffffffffffffffffffffffffff1673ffffffffffffffffffffffffffffffffffffffff168152602001908152602001600020541015151561069757600080fd5b806000803373ffffffffffffffffffffffffffffffffffffffff1673ffffffffffffffffffffffffffffffffffffffff1681526020019081526020016000206000828254039250508190555050565b60008060008373ffffffffffffffffffffffffffffffffffffffff1673ffffffffffffffffffffffffffffffffffffffff168152602001908152602001600020549050919050565b600360009054906101000a900473ffffffffffffffffffffffffffffffffffffffff1673ffffffffffffffffffffffffffffffffffffffff163373ffffffffffffffffffffffffffffffffffffffff1614151561078a57600080fd5b6001600360146101000a81548160ff021916908315150217905550565b600360009054906101000a900473ffffffffffffffffffffffffffffffffffffffff1681565b600360149054906101000a900460ff1681565b600360149054906101000a900460ff1615156107fb57600080fd5b6108058282610d36565b5050565b60026020528060005260406000206000915054906101000a900460ff1681565b600081600160003373ffffffffffffffffffffffffffffffffffffffff1673ffffffffffffffffffffffffffffffffffffffff16815260200190815260200160002060008573ffffffffffffffffffffffffffffffffffffffff1673ffffffffffffffffffffffffffffffffffffffff168152602001908152602001600020819055506001905092915050565b6001602052816000526040600020602052806000526040600020600091509150505481565b600360009054906101000a900473ffffffffffffffffffffffffffffffffffffffff1673ffffffffffffffffffffffffffffffffffffffff163373ffffffffffffffffffffffffffffffffffffffff1614151561093757600080fd5b80600260008473ffffffffffffffffffffffffffffffffffffffff1673ffffffffffffffffffffffffffffffffffffffff16815260200190815260200160002060006101000a81548160ff0219169083151502179055507f67a17b8db8ff8fa7cff69c2328bf8a35f9be2c88abeea30be900fc28eece28ed8282604051808373ffffffffffffffffffffffffffffffffffffffff1673ffffffffffffffffffffffffffffffffffffffff168152602001821515151581526020019250505060405180910390a15050565b60006020528060005260406000206000915090505481565b6000808373ffffffffffffffffffffffffffffffffffffffff1614151515610a4057600080fd5b816000808673ffffffffffffffffffffffffffffffffffffffff1673ffffffffffffffffffffffffffffffffffffffff16815260200190815260200160002054111515610a8c57600080fd5b6000808473ffffffffffffffffffffffffffffffffffffffff1673ffffffffffffffffffffffffffffffffffffffff16815260200190815260200160002054826000808673ffffffffffffffffffffffffffffffffffffffff1673ffffffffffffffffffffffffffffffffffffffff168152602001908152602001600020540110151515610b1957600080fd5b600160008573ffffffffffffffffffffffffffffffffffffffff1673ffffffffffffffffffffffffffffffffffffffff16815260200190815260200160002060003373ffffffffffffffffffffffffffffffffffffffff1673ffffffffffffffffffffffffffffffffffffffff168152602001908152602001600020548211151515610ba457600080fd5b816000808673ffffffffffffffffffffffffffffffffffffffff1673ffffffffffffffffffffffffffffffffffffffff16815260200190815260200160002060008282540392505081905550816000808573ffffffffffffffffffffffffffffffffffffffff1673ffffffffffffffffffffffffffffffffffffffff1681526020019081526020016000206000828254019250508190555081600160008673ffffffffffffffffffffffffffffffffffffffff1673ffffffffffffffffffffffffffffffffffffffff16815260200190815260200160002060003373ffffffffffffffffffffffffffffffffffffffff1673ffffffffffffffffffffffffffffffffffffffff168152602001908152602001600020600082825403925050819055508273ffffffffffffffffffffffffffffffffffffffff168473ffffffffffffffffffffffffffffffffffffffff167fddf252ad1be2c89b69c2b068fc378daa952ba7f163c4a11628f55a4df523b3ef846040518082815260200191505060405180910390a3600190509392505050565b60008273ffffffffffffffffffffffffffffffffffffffff1614151515610d5c57600080fd5b806000803373ffffffffffffffffffffffffffffffffffffffff1673ffffffffffffffffffffffffffffffffffffffff16815260200190815260200160002054111515610da857600080fd5b6000808373ffffffffffffffffffffffffffffffffffffffff1673ffffffffffffffffffffffffffffffffffffffff16815260200190815260200160002054816000808573ffffffffffffffffffffffffffffffffffffffff1673ffffffffffffffffffffffffffffffffffffffff168152602001908152602001600020540110151515610e3557600080fd5b806000803373ffffffffffffffffffffffffffffffffffffffff1673ffffffffffffffffffffffffffffffffffffffff16815260200190815260200160002060008282540392505081905550806000808473ffffffffffffffffffffffffffffffffffffffff1673ffffffffffffffffffffffffffffffffffffffff168152602001908152602001600020600082825401925050819055508173ffffffffffffffffffffffffffffffffffffffff163373ffffffffffffffffffffffffffffffffffffffff167fddf252ad1be2c89b69c2b068fc378daa952ba7f163c4a11628f55a4df523b3ef836040518082815260200191505060405180910390a350505600a165627a7a723058204d5a86623f4bc21ba52cdc8755d40231f1914c5e440dafb0939db4345d1152380029",
  "source": "pragma solidity ^0.4.23;\n\nimport \"./StageFactory.sol\";\nimport \"./ReleasableToken.sol\";\nimport \"./ReleasableSimpleCoin.sol\";\n\n/* 추가하면 좋을점 unlimited limited 로 나누어서 진행할수 있게 추가\n그리고 아직 너무 중복되는 함수가 많고 깔끔하지 않음 */\ncontract VoteStageFactory is StageFactory { //이번에는 각 메뉴별 이 아니라 투자 금액에 따른 투표권을 부여받아 투표권으로 메뉴 선택\n\n  uint256 public investmentReceived;\n  uint256 public investmentRefunded;\n  uint256 public winningChoiceId;\n\n  ReleasableToken  public VoteToken;\n\n  constructor(string _name, uint256 _totalAmount,uint256 _numOfChoices) StageFactory(_name,_totalAmount,_numOfChoices) public{\n    isFinalized = false; //초기값 false\n    isTimeset = false;\n    isInvestmentHigher = false;\n    VoteToken = createToken();\n  }\n\n  function createToken() internal returns (ReleasableToken) {\n    return new ReleasableSimpleCoin(0);\n  }\n\n  function calculateNumberOfTokens(uint256 _investment) internal view returns (uint256) { //총 투표권의 개수는 100으로 했다\n    return (_investment * 100) / totalAmount;\n  }\n\n  function assignTokens(address _beneficiary, uint256 _investment) internal {\n\n    uint256 _numberOfTokens = calculateNumberOfTokens(_investment);\n    VoteToken.mint(_beneficiary, _numberOfTokens);\n  }\n\n  function attendStage() public payable{\n    //require(isValidInvestment(msg.value));\n    require(!isInvestmentHigher);\n\n    address investor = msg.sender;\n    uint256 investment = msg.value;\n    uint256 refundinvestment;\n\n    if(investment + investmentReceived > totalAmount){ // 최대 금액을 넘는 금액을 투자하였을때 넘는 금액은 되돌려준다.\n        refundinvestment = investment - totalAmount + investmentReceived;\n        investment = totalAmount - investmentReceived;\n        investor.transfer(refundinvestment);\n    }\n\n    info_participant[investor].investMoney += investment; // 여기 두줄은 추가적인 정보작성\n    investmentReceived += investment;\n\n    assignTokens(investor, investment); // 투자하였음으로 금액에 따른 코인을 부여받는다.\n\n    if(investmentReceived == totalAmount){\n        isInvestmentHigher = true;\n    }\n\n  }\n\n  function finalize() onlyOwner public {\n    if (isFinalized) revert();\n\n    bool isCrowdsaleComplete = true; // = now > endTime; 일단은 편하게 처리하기 위해 주석으로 처리\n    bool investmentObjectiveMet = investmentReceived >= totalAmount;\n\n    if(isCrowdsaleComplete){\n        if (investmentObjectiveMet)\n            VoteToken.release(); // 서로간 투표권 주고받을수 있다.\n        else\n            isRefundingAllowed = true;\n\n        isFinalized = true;\n    }\n  }\n\n  function refund() public { //시간 체크 modifer 추가해야한다.\n    if (!isRefundingAllowed) revert();\n\n    address investor = msg.sender;\n    uint256 investment = info_participant[investor].investMoney;\n    if (investment == 0) revert();\n    info_participant[investor].investMoney = 0;\n    investmentRefunded += investment;\n\n    if (!investor.send(investment)) revert();\n  }\n\n  function Vote(uint _choiceId, uint _VoteToken) public{\n      //time needs to be set for voting\n      address voter = msg.sender;\n      require(_VoteToken<=100);\n      require(VoteToken.getCoinBalance(voter) != 0);\n      require(VoteToken.getCoinBalance(voter) >= _VoteToken); // msg.sender has to have at least 1 coin to vote\n      infoChoice[_choiceId].numOfVotes += _VoteToken;\n      //VoteToken.burn(_VoteToken);\n  }\n  \n  function getMyVoteNum() public returns (uint){\n      return VoteToken.getCoinBalance(msg.sender);\n  }\n\n  function getChoiceInfoVotes(uint _choiceId) public view returns(string, uint){ //각 초이스별 현재 투표수\n      return (infoChoice[_choiceId].choice_name,infoChoice[_choiceId].numOfVotes);\n  }\n\n  function tallyVotes() public returns(uint){ // 투표 최대 득표 확인 교재 내용\n      uint winningVoteCount =0;\n      uint winningChoiceIndex = 0;\n\n\n      for (uint i=0;i<numOfChoices;i++){\n          if(infoChoice[i].numOfVotes > winningVoteCount){\n              winningVoteCount = infoChoice[i].numOfVotes;\n              winningChoiceIndex=i;\n          }\n      }\n      winningChoiceId=winningChoiceIndex;\n  }\n\n  function endVote(uint _winningChoiceId) onlyOwner public{// 최대 득표된 초이스 사장님한테 송금\n      require(winningChoiceId==_winningChoiceId);\n      infoChoice[_winningChoiceId].choice_address.transfer(totalAmount);\n  }\n}\n",
  "sourcePath": "/home/kim/Desktop/Solidity/Final/contracts/VoteStageFactory.sol",
  "compiler": {
    "name": "solc",
    "version": "0.4.25+commit.59dbf8f1.Emscripten.clang"
  },
  "schemaVersion": "2.0.2",
  "updatedAt": "2021-05-28T17:15:55.683Z"
}